S015000046696E616C2050726F6A6563742E737265632E
S11300000C942A000C94FA030C9447000C944700B7
S11300100C9447000C9447000C9447000C94470040
S11300200C9447000C9447000C94BB090C9492095F
S11300300C9447000C941D0A0C9447000C94470040
S11300400C9447000C9447000C9447000C94470010
S11300500C94470011241FBECFE5D8E0DEBFCDBF0E
S113006011E0A0E6B0E0E6E9F5E102C005900D92EA
S1130070A23AB107D9F721E0A2EAB1E001C01D928A
S1130080AB3AB207E1F70E947C060C94C90A0C94BF
S113009000000E94FF098093A40108950E9447056F
S11300A00E945B0464E082E60E94700665E082E6DA
S11300B00E94700666E082E60E94700667E082E6AF
S11300C00E9411040E941D040E94830682E00E9483
S11300D0AF0880E895E20E94E40989E490E00E9478
S11300E0160A0E94FA0964E083E00E94EC0862E0C8
S11300F084E60E94090462E084E60E940D0480E61E
S113010090E00E94C7054EE650E060E081E00E9466
S1130110EF052FEF82E597E0215080409040E1F712
S113012000C000000895EF92FF920F931F93CF93A6
S1130130DF93EC018B01E42EF22E86E790E00E941F
S1130140030A8DE00E94F60943E850E060E081E094
S11301500E94EF0565E082E60E94740664E082E690
S11301600E94780666E082E60E94780667E082E6EE
S11301700E94190460E883E00E94760928C080E0A8
S11301800E949B069C0140E050E0F80120833183EB
S113019042835383A4EFB1E00E949B0A2FEF33E024
S11301A040E050E00E945A0A288330E040E050E0EA
S11301B06CE081E00E945F060E949C048093A3018E
S11301C08091A301833619F481E08093A201888190
S11301D08F1530F0E81620F08091A201882379F27F
S11301E0DF91CF911F910F91FF90EF900895FF92AF
S11301F00F931F93CF93DF93EC018B01F42E83E9CC
S113020090E00E94030A8DE00E94F6094EE950E056
S113021060E081E00E94EF0565E082E60E947806D6
S113022064E082E60E94780666E082E60E94740634
S113023067E082E60E9419046FEF83E00E9476096A
S113024028C080E00E949B069C0140E050E0F80139
S11302502083318342835383A4EFB1E00E949B0A3D
S11302602FEF33E040E050E00E945A0A288330E048
S113027040E050E06CE081E00E945F060E949C0434
S11302808093A3018091A301833619F481E08093C4
S1130290A2018881F81630F4863420F48091A201FA
S11302A0882379F2DF91CF911F910F91FF900895E8
S11302B0FF920F931F93CF93DF93EC018B01F22EE8
S11302C08DEA90E00E94030A8DE00E94F60947EB54
S11302D050E060E081E00E94EF0565E082E60E9464
S11302E0780664E082E60E94740666E082E60E9474
S11302F0780667E082E60E94190460E083E00E94C9
S1130300760931C080E00E949B069C0140E050E0E9
S1130310F8012083318342835383A4EFB1E00E9428
S11303209B0A2FEF33E040E050E00E945A0A2883F2
S1130330293031F440E950E06CE081E00E94EF059F
S1130340288130E040E050E06CE081E00E945F06EC
S11303500E949C048093A3018091A301833619F425
S113036081E08093A20188818F1520F48091A201FD
S1130370882341F2DF91CF911F910F91FF9008954F
S11303800F931F93CF93DF93EC018B0186EC90E0E6
S11303900E94030A8DE00E94F6090E94DA0586ECA9
S11303A090E00E94C70565E082E60E94740664E05E
S11303B082E60E94740666E082E60E94740667E0A4
S11303C082E60E9415046FEF83E00E94760921C043
S11303D080E00E949B069C0140E050E0F8012083ED
S11303E0318342835383A4EFB1E00E949B0A2FEF31
S11303F033E040E050E00E945A0A28830E949C04A3
S11304008093A3018091A301833619F481E0809342
S1130410A2018881863420F08091A2018823C1F250
S1130420DF91CF911F910F9108950F931F93CF9355
S1130430DF9300D000D01F92CDB7DEB7082F162F60
S113044019821A821B821C821D820E94DA0556C000
S113045043ED50E060E080E00E94EF0580E00E9400
S11304609B069C0140E050E029833A834B835C83E4
S1130470A4EFB1E00E949B0A2FEF33E040E050E08C
S11304800E945A0A822F2D83101738F00E94DA0531
S113049088EE90E00E94C70561C0211760F0021742
S11304A050F0212F402FBE016F5F7F4FCE01059684
S11304B00E94930023C0081760F4863450F4212F5F
S11304C0402FBE016F5F7F4FCE0105960E94F7005B
S11304D015C0863440F0BE016F5F7F4FCE01059694
S11304E00E94C0010BC0811748F4212F402FBE0188
S11304F06F5F7F4FCE0105960E9458018091A20143
S1130500882309F4A5CF8091A201813039F58DEFBC
S113051090E00E94030A8DE00E94F60965E082E6FD
S11305200E94780664E082E60E94780666E082E62D
S11305300E94780667E082E60E94190460E083E086
S11305400E94760942E151E060E080E00E94EF05FC
S113055042E251E060E081E00E94EF050F900F90CD
S11305600F900F900F90DF91CF911F910F910895ED
S11305700F931F93CF93DF93EC018B011882FB0140
S113058010820E94DA0583E391E00E94C70523C02C
S11305900E949C048093A3018091A3018033D8F02E
S11305A08091A3018A33B8F48091A3010E9481054C
S11305B088819091A301880F282F220F220F820F88
S11305C0890F805388830E949C048093A3018091A7
S11305D0A3010E9481058091A3018D33C9F648814E
S11305E0463438F00E94DA058CE391E00E94C70596
S11305F058C060EA80E10E9420040E94DA0588E481
S113060091E00E94C70504C00E949C048093A3014A
S11306108091A3018A32C1F70E94DA058CE591E04A
S11306200E94C70524C00E949C048093A30180916A
S1130630A3018033E0F08091A3018A33C0F4809158
S1130640A3010E948105F80180819091A301880F84
S1130650282F220F220F820F890F805380830E943C
S11306609C048093A3018091A3010E948105809141
S1130670A3018D33C1F6F80140818881481738F011
S11306800E94DA058CE391E00E94C7050AC060EA83
S113069080E20E9420040E94DA0584E691E00E9430
S11306A0C705DF91CF911F910F910895CF93DF93E9
S11306B0D82FC62F0E94DA0543E351E061E080E0C1
S11306C00E94EF052D2F30E040E050E069E080E02B
S11306D00E945F064CE551E061E081E00E94EF0575
S11306E02C2F30E040E050E069E081E00E945F069A
S11306F0DF91CF910895CF93DF9300D0CDB7DEB7CC
S113070060EA80E10E943F04898360EA80E20E94FB
S11307103F048A830E94DA0542E151E060E080E010
S11307200E94EF0542E251E060E081E00E94EF05A3
S11307301092A2010E949C048093A3018091A301C2
S11307408823B1F38091A301813321F128F48B3202
S113075049F08D3281F03FC0833349F100F1833693
S113076059F139C00E94DA0546E751E060E080E0C3
S11307700E94EF05DDCF0E94DA0542E151E060E01E
S113078080E00E94EF0542E251E060E081E00E94D7
S1130790EF05CECF6A8189810E941502C9CFBE01BF
S11307A06E5F7F4FCE0101960E94B802C1CF6A816D
S11307B089810E945603BCCF0E94DA0542E151E0D0
S11307C060E080E00E94EF0542E251E060E081E0F9
S11307D00E94EF05ADCF0E94DA0542E151E060E0EE
S11307E080E00E94EF0542E251E060E081E00E9477
S11307F0EF059ECF1F920F920FB60F9211248F9385
S113080081E08093A2018F910F900FBE0F901F90F3
S1130810189540E00E94B106089541E00E94400707
S1130820089541E00E94B106089541E00E94400706
S1130830089540E00E94400708950E94CB0808955F
S11308401F93CF93DF93D82F162FC42F0E94CB086A
S11308500E94D108812F0E94DA088D2F0E94DA08A5
S11308608C2F0E94DA080E94D7088FE295E701973F
S1130870F1F700C00000DF91CF911F910895CF934D
S1130880DF93D82FC62F0E94D1088C2F0E94DA083C
S11308908D2F0E94DA080E94D1088C2F81600E945B
S11308A0DA0881E00E94E108C82F0E94D7088C2F43
S11308B0DF91CF910895CF9341E064E083E60E94F5
S11308C0B10641E065E083E60E94B10641E066E0DE
S11308D083E60E94B10641E067E083E60E94B10628
S11308E0C0E00AC0EC2FF0E0E757FE4F40E0608123
S11308F084E60E94B106CF5FC430A0F3C0E00AC012
S1130900EC2FF0E0E357FE4F41E0608183E60E9464
S11309104007CF5FC430A0F3C0E00AC0EC2FF0E082
S1130920E757FE4F41E0608184E60E944007CF5FB5
S1130930C430A0F3CF910895AF92BF92CF92DF92CB
S1130940EF92FF920F931F93CF93DF931F92CDB734
S1130950DEB781E08983B12C43C0CB2CD12CF601C6
S1130960E357FE4FA08040E06A2D83E60E944007D3
S113097010E02EC0E12EF12CF701E757FE4F008165
S1130980AE014F5F5F4F602F84E60E94CF078981DD
S113099081111DC08FE39CE90197F1F700C00000AD
S11309A007C0AE014F5F5F4F602F84E60E94CF0700
S11309B089818823B1F3C601880F991F880F991F75
S11309C08F569E4FFC01EE0DFF1D80810EC01F5FF0
S11309D0143080F241E06A2D83E60E944007B3940C
S11309E093E09B1508F0B9CF80E00F90DF91CF9191
S11309F01F910F91FF90EF90DF90CF90BF90AF9039
S1130A000895CF93C82F40E060E082E60E9440073B
S1130A1040E061E082E60E9440076C2F607F81E63F
S1130A200E948A0841E062E082E60E9440078FEC5F
S1130A3097E00197F1F700C0000040E062E082E631
S1130A400E9440078FEC97E00197F1F700C0000087
S1130A5090E1C99FB001112481E60E948A0841E017
S1130A6062E082E60E9440078FEC97E00197F1F77D
S1130A7000C0000040E062E082E60E9440078FEC84
S1130A8097E00197F1F700C00000CF91089541E08D
S1130A9060E082E60E94B10641E061E082E60E94E5
S1130AA0B10641E062E082E60E94B10661E081E6BF
S1130AB00E9439082FEB8AED90E02150804090404D
S1130AC0E1F700C0000082E00E94010588E20E9474
S1130AD001052AE62A95F1F700C08EE00E9401057F
S1130AE08AE68A95F1F700C081E00E9401058FE94A
S1130AF09FE00197F1F700C0000086E00E94010525
S1130B000895CF93C82F41E060E082E60E94400739
S1130B1040E061E082E60E9440076C2F607F81E63E
S1130B200E948A0841E062E082E60E9440078FEC5E
S1130B3097E00197F1F700C0000040E062E082E630
S1130B400E9440078FEC97E00197F1F700C0000086
S1130B5090E1C99FB001112481E60E948A0841E016
S1130B6062E082E60E9440078FEC97E00197F1F77C
S1130B7000C0000040E062E082E60E9440078FEC83
S1130B8097E00197F1F700C00000CF9108950F930B
S1130B901F93CF938C01C0E003C00E948105CF5FF7
S1130BA0F801EC0FF11D80818111F7CFCF911F91D6
S1130BB00F91089581E00E9401058FE99FE001975C
S1130BC0F1F700C0000086E00E940105089581301D
S1130BD009F4605C862F80680E9401050895CF9314
S1130BE0DF93EA010E94E705CE010E94C705DF9169
S1130BF0CF910895CF92DF92EF92FF920F931F93BC
S1130C00CF93DF93CDB7DEB760970FB6F894DEBF0E
S1130C100FBECDBF6B017C01611571058105910586
S1130C2099F09B01AC0100E009C00F5FCA01B90152
S1130C302AE030E040E050E00E947C0A21153105B2
S1130C404105510591F701C001E00F3048F510E06E
S1130C501AC0C701B6012AE030E040E050E00E942B
S1130C607C0A69017A01812F90E00196E02FF0E07F
S1130C70E81BF90B81E090E08C0F9D1FE80FF91F32
S1130C80605D60831F5F101720F3E1E0F0E0EC0F7C
S1130C90FD1FE00FF11D1082CE0101960E94C705D1
S1130CA060960FB6F894DEBF0FBECDBFDF91CF9133
S1130CB01F910F91FF90EF90DF90CF900895CF9206
S1130CC0DF92EF92FF9269017A010E94E705C70162
S1130CD0B6010E94FA05FF90EF90DF90CF9008953F
S1130CE041E00E94B106089541E00E944007089542
S1130CF040E00E94400708950E944E000E947B033A
S1130D0080E090E008958AB31ABA87B1806487B905
S1130D1087B18F7787B986B1816086B986B18260E1
S1130D2086B986B1846086B987B18F7D87B986B16B
S1130D30806886B9089597B1907E97B997B1892B49
S1130D4087B986B1806486B9349BFECF86B1806151
S1130D5086B924B185B190E0982F8827820F911D20
S1130D600895823649F118F4813641F07FC0833604
S1130D7009F440C0843609F45BC078C0442319F0F8
S1130D80413071F075C02AB381E090E002C0880F51
S1130D90991F6A95E2F7809582238ABB80E00895C3
S1130DA02AB381E090E002C0880F991F6A95E2F7A8
S1130DB0822B8ABB80E00895442319F0413071F0FE
S1130DC059C027B381E090E002C0880F991F6A954B
S1130DD0E2F78095822387BB80E0089527B381E002
S1130DE090E002C0880F991F6A95E2F7822B87BBB7
S1130DF080E00895442319F0413071F03DC024B3DC
S1130E0081E090E002C0880F991F6A95E2F780950F
S1130E10822384BB80E0089524B381E090E002C083
S1130E20880F991F6A95E2F7822B84BB80E00895AE
S1130E30442319F0413071F021C021B381E090E0E6
S1130E4002C0880F991F6A95E2F78095822381BBBF
S1130E5080E0089521B381E090E002C0880F991FDB
S1130E606A95E2F7822B81BB80E008958FEF0895A5
S1130E708FEF08958FEF08958FEF08958FEF089502
S1130E80823649F118F4813641F07FC0833609F483
S1130E9040C0843609F45BC078C0442319F0413063
S1130EA071F075C02BB381E090E002C0880F991FE8
S1130EB06A95E2F7809582238BBB80E008952BB37B
S1130EC081E090E002C0880F991F6A95E2F7822BB7
S1130ED08BBB80E00895442319F0413071F059C070
S1130EE028B381E090E002C0880F991F6A95E2F769
S1130EF08095822388BB80E0089528B381E090E048
S1130F0002C0880F991F6A95E2F7822B88BB80E0A4
S1130F100895442319F0413071F03DC025B381E0B8
S1130F2090E002C0880F991F6A95E2F780958223AA
S1130F3085BB80E0089525B381E090E002C0880F6E
S1130F40991F6A95E2F7822B85BB80E008954423BC
S1130F5019F0413071F021C022B381E090E002C069
S1130F60880F991F6A95E2F78095822382BB80E0FF
S1130F70089522B381E090E002C0880F991F6A951A
S1130F80E2F7822B82BB80E008958FEF08958FEF04
S1130F9008958FEF08958FEF08958FEF08958236A7
S1130FA009F118F4813639F062C0833691F1843640
S1130FB009F446C05CC079B381E090E09C01062E40
S1130FC002C0220F331F0A94E2F7872F90E0822396
S1130FD0932302C0959587956A95E2F7FA01808379
S1130FE080E0089576B381E090E09C01062E02C073
S1130FF0220F331F0A94E2F7872F90E08223932372
S113100002C0959587956A95E2F7FA01808380E09E
S1131010089573B381E090E09C01062E02C0220F74
S1131020331F0A94E2F7872F90E08223932302C0B0
S1131030959587956A95E2F7FA01808380E0089593
S113104070B381E090E09C01062E02C0220F331F92
S11310500A94E2F7872F90E08223932302C09595A8
S113106087956A95E2F7FA01808380E008958FEF0F
S113107008958236C1F018F4813631F041C08336C8
S113108009F1843671F13CC0662319F0613031F006
S113109039C08AB38F708ABB80E008958AB3806FA9
S11310A08ABB80E00895662319F0613031F02CC0CA
S11310B087B38F7087BB80E0089587B3806F87BB49
S11310C080E00895662319F0613031F01FC084B3C5
S11310D08F7084BB80E0089584B3806F84BB80E00C
S11310E00895662319F0613031F012C081B38F7016
S11310F081BB80E0089581B3806F81BB80E0089557
S11311008FEF08958FEF08958FEF08958FEF08956F
S11311108FEF0895823679F018F4813631F01DC0CE
S1131120833679F0843699F018C08BB38F70682BAE
S11311306BBB80E0089588B38F70682B68BB80E038
S1131140089585B38F70682B65BB80E0089582B3E2
S11311508F70682B62BB80E008958FEF08957894B8
S1131160813051F028F0823059F0833069F00FC09B
S113117085B78C7F85BF0BC085B7816085BF07C0ED
S113118085B7826085BF03C085B7836085BF8BB791
S113119080648BBF089511B888E080B984E086BF6D
S11311A0089584EA86BF06B607FEFDCF089584E954
S11311B086BF089583B984E886BF06B607FEFDCFCF
S11311C0089520E4829FC0011124846886BF06B676
S11311D007FEFDCF83B1089512BE813089F028F057
S11311E08230C9F0833039F135C083B78F7B83BF38
S11311F083B7877F83BF789489B7816089BF2AC00A
S113120083B78F7B83BF83B7886083BF789489B7A4
S1131210826089BF1FC083B7806483BF83B788603F
S113122083BF83B78F7E83BF83B7806283BF87B357
S1131230886087BB0FC083B7806483BF83B7877F11
S113124083BF83B78F7E83BF83B7806283BF87B337
S1131250886087BB623001F128F4662349F061306D
S113126089F00895643061F108F1653099F10895C9
S113127083B78E7F83BF83B78D7F83BF83B78B7F15
S113128083BF089583B7816083BF83B78D7F83BF96
S113129083B78B7F83BF089583B78E7F83BF83B764
S11312A0826083BF83B78B7F83BF089583B78160D8
S11312B083BF83B7826083BF83B78B7F83BF089567
S11312C083B78E7F83BF83B78D7F83BF83B78460EB
S11312D083BF089583B7816083BF83B78D7F83BF46
S11312E083B7846083BF08958CBF0895823019F05A
S11312F0833061F00895962F80E064E670E00E94E8
S1131300460A8FEF860F0E94740908952FEF629F9B
S1131310C001112464E670E00E94460A862F0E94F0
S1131320740908951F920F920FB60F9211242F93F0
S11313303F934F935F936F937F938F939F93AF9359
S1131340BF93EF93FF93E091A701F091A801309729
S113135009F00995FF91EF91BF91AF919F918F9102
S11313607F916F915F914F913F912F910F900FBE9D
S11313700F901F9018951F920F920FB60F92112481
S11313802F933F934F935F936F937F938F939F9389
S1131390AF93BF93EF93FF93E091A501F091A60162
S11313A0309709F00995FF91EF91BF91AF919F910B
S11313B08F917F916F915F914F913F912F910F90FA
S11313C00FBE0F901F9018959C0140E050E060E222
S11313D071EA87E090E00E945A0A2150310930BD39
S11313E029B988E18AB986E880BD08955D9BFECF5E
S11313F08CB908958AB180688AB9789408955F9BFE
S1131400FECF8CB108950F931F93CF938C01C0E04E
S113141003C00E94F609CF5FF801EC0FF11D808133
S11314208111F7CFCF911F910F910895009721F06B
S11314309093AA018093A90108951F920F920FB669
S11314400F9211242F933F934F935F936F937F9346
S11314508F939F93AF93BF93EF93FF93E091A90171
S1131460F091AA01309709F00995FF91EF91BF918E
S1131470AF919F918F917F916F915F914F913F9128
S11314802F910F900FBE0F901F90189597FB072E6A
S113149016F4009407D077FD09D00E94A60A07FC31
S11314A005D03EF4909581959F4F08957095619570
S11314B07F4F0895A1E21A2EAA1BBB1BFD010DC08C
S11314C0AA1FBB1FEE1FFF1FA217B307E407F507F0
S11314D020F0A21BB30BE40BF50B661F771F881FCC
S11314E0991F1A9469F760957095809590959B0162
S11314F0AC01BD01CF010895052E97FB1EF40094A5
S11315000E94930A57FD07D00E945A0A07FC03D091
S11315104EF40C94930A50954095309521953F4F85
S11315204F4F5F4F089590958095709561957F4FCB
S11315308F4F9F4F08950E94BA0AA59F900DB49FA4
S1131540900DA49F800D911D11240895AA1BBB1B0F
S113155051E107C0AA1FBB1FA617B70710F0A61BAF
S1131560B70B881F991F5A95A9F780959095BC01D0
S1131570CD010895A29FB001B39FC001A39F700D38
S1131580811D1124911DB29F700D811D1124911D87
S10915900895F894FFCF5A
S113159654656D702E20636F6E74726F6C0050729A
S11315A66F6A656374004E6F726D616C207374614B
S11315B67465004E6F726D616C2C20543D202020A2
S11315C6202000486967682053746174650048697F
S11315D6676820202C20543D20202020004C6F7763
S11315E6207374617465004C6F772020202C20547E
S11315F63D20202020004669726520416C61726D91
S113160621210053797374656D20756E64657220AB
S1131616636F6E74726F6C00456E7465722054202D
S113162676616C75657320666972737400436F6EB8
S113163674726F6C206D6F64652073746F7070655F
S11316466400312D537461727420436F6E74726F2B
S11316566C00322D456E74657220542076616C756B
S11316666573005420486967683D200057726F6EA1
S11316766720656E747279005072657373207820E2
S1131686746F20636F6E74696E75650054204C6FB9
S1131696773D200056616C75657320617265207311
S11316A6617665642E00332D446973706C6179200C
S11316B6542076616C7565730004050607040506F7
S11316C6073738392F3435362A3132332D63303DD6
S10516D62B00E3
S9030000FC
